{
  "_format": "hh-sol-artifact-1",
  "contractName": "Ballot",
  "sourceName": "contracts/Ballot.sol",
  "abi": [
    {
      "inputs": [
        {
          "internalType": "uint256",
          "name": "numProposals",
          "type": "uint256"
        }
      ],
      "stateMutability": "nonpayable",
      "type": "constructor"
    },
    {
      "inputs": [],
      "name": "getChairperson",
      "outputs": [
        {
          "internalType": "address",
          "name": "",
          "type": "address"
        }
      ],
      "stateMutability": "view",
      "type": "function"
    },
    {
      "inputs": [
        {
          "internalType": "address",
          "name": "voter",
          "type": "address"
        }
      ],
      "name": "register",
      "outputs": [],
      "stateMutability": "nonpayable",
      "type": "function"
    },
    {
      "inputs": [],
      "name": "reqWinner",
      "outputs": [
        {
          "internalType": "uint256",
          "name": "winningProposal",
          "type": "uint256"
        }
      ],
      "stateMutability": "view",
      "type": "function"
    },
    {
      "inputs": [
        {
          "internalType": "uint256",
          "name": "toProposal",
          "type": "uint256"
        }
      ],
      "name": "vote",
      "outputs": [],
      "stateMutability": "nonpayable",
      "type": "function"
    }
  ],
  "bytecode": "0x608060405234801561001057600080fd5b5060405161049938038061049983398101604081905261002f916100c2565b600080546001600160a01b03191633178082556001600160a01b03168152600160205260408120600290555b818160ff1610156100bb576040805160208101909152600080825260028054600181018255915290517f405787fa12a823e0f2b7631cc41b3ba8828b3321ca811111fa75cd3aa3bb5ace90910155806100b3816100da565b91505061005b565b5050610106565b6000602082840312156100d3578081fd5b5051919050565b600060ff821660ff8114156100fd57634e487b7160e01b82526011600452602482fd5b60010192915050565b610384806101156000396000f3fe608060405234801561001057600080fd5b506004361061004c5760003560e01c80630121b93f146100515780634420e48614610066578063508b30c9146100795780637d80c38e14610097575b600080fd5b61006461005f3660046102a0565b6100ac565b005b610064610074366004610272565b61018b565b6100816101b3565b60405161008e91906102fc565b60405180910390f35b61009f610263565b60405161008e91906102b8565b336000908152600160205260409020546100e15760405162461bcd60e51b81526004016100d8906102cc565b60405180910390fd5b336000908152600160208181526040928390208351606081018552815481529281015460ff161580159284019290925260020154928201929092529061012657600080fd5b600254821061013457600080fd5b60016020820152604081018290528051600280548490811061016657634e487b7160e01b600052603260045260246000fd5b9060005260206000200160000160008282546101829190610305565b90915550505050565b6001600160a01b0316600090815260016020819052604090912081815501805460ff19169055565b600080805b60025481101561023f5781600282815481106101e457634e487b7160e01b600052603260045260246000fd5b9060005260206000200160000154111561022d576002818154811061021957634e487b7160e01b600052603260045260246000fd5b906000526020600020016000015491508092505b806102378161031d565b9150506101b8565b50600381101561025f57634e487b7160e01b600052600160045260246000fd5b5090565b6000546001600160a01b031690565b600060208284031215610283578081fd5b81356001600160a01b0381168114610299578182fd5b9392505050565b6000602082840312156102b1578081fd5b5035919050565b6001600160a01b0391909116815260200190565b6020808252601690820152752737ba1030902932b3b4b9ba32b932b2102b37ba32b960511b604082015260600190565b90815260200190565b6000821982111561031857610318610338565b500190565b600060001982141561033157610331610338565b5060010190565b634e487b7160e01b600052601160045260246000fdfea2646970667358221220f73a5bca32a8e80a2c12a6ff7a31fac73ea090e43cc08f77296fae316740880e64736f6c63430008000033",
  "linkReferences": {},
  "deployedLinkReferences": {}
}